:020000040800F2
:1000000070B40020750200080B23000803230008C9
:1000100007230008390700086127000800000000D6
:10002000000000000000000000000000DD010008EA
:100030003D07000800000000210200083D240008E0
:100040008F0200088F0200088F0200088F0200084C
:100050008F0200088F020008410700088F02000885
:1000600055070008690700087D0700088F0200088F
:100070008F0200088F0200088F0200088F0200081C
:100080008F0200088F0200088F0200088F0200080C
:100090008F0200088F0200088F02000891070008F5
:1000A0008F0200088F0200088F0200088F020008EC
:1000B0008F0200088F0200088F0200088F020008DC
:1000C0008F0200088F0200088F0200088F020008CC
:1000D0008F020008512700088F0200088F020008D5
:1000E0008F0200088F0200088F0200088F020008AC
:1000F0008F0200088F0200088F0200088F0200089C
:100100008F0200088F0200088F0200088F0200088B
:100110008F0200088F020008552400088F02000893
:100120008F0200088F0200088F0200088F0200086B
:1001300000F002F800F042F80AA090E8000C8244B7
:100140008344AAF10107DA4501D100F037F8AFF294
:10015000090EBAE80F0013F0010F18BFFB1A43F0A5
:1001600001031847C8C60000E8C60000103A24BFC3
:1001700078C878C1FAD8520724BF30C830C144BF0C
:1001800004680C607047000000230024002500264E
:10019000103A28BF78C1FBD8520728BF30C148BFEA
:1001A0000B607047642900F0F180732900F026820B
:1001B000002070471FB51FBD10B510BD00F08CFAB0
:1001C0001146FFF7F7FF05F0C7FF00F0AAFA03B4E6
:1001D000FFF7F2FF03BC02F0E1FA0000224B1968BE
:1001E0000868B0E8F00F80F30988BFF36F8F4FF015
:1001F000000080F311884EF00D0E704700000000E3
:1002000006480068006880F3088862B661B6BFF3EC
:100210004F8FBFF36F8F00DF00BF00BF08ED00E01E
:10022000EFF30980BFF36F8F0F4B1A6820E9F00FCF
:10023000106008B54FF0500080F31188BFF34F8F66
:10024000BFF36F8F08F028FA4FF0000080F3118899
:10025000BDE8084019680868B0E8F00F80F3098825
:10026000BFF36F8F704700BF58000020EFF3058089
:10027000704700000948804709480047FEE7FEE74D
:10028000FEE7FEE7FEE7FEE7FEE7FEE7FEE7FEE746
:1002900004480549054A064B7047000051240008F0
:1002A0003101000870AE002070B4002070B0002052
:1002B00070B00020704700000FB4044910B503AAC5
:1002C000029800F09FF910BC5DF814FB1C000020A0
:1002D0002DE9F0410E460446002020622046E168E8
:1002E000884730B3252805D0D4E901219047206AFA
:1002F000401CF2E7E168204600278847050018D037
:10030000A5F14100192802D820354FF40067324684
:10031000294620462760FFF745FF40B1012804D059
:10032000F61D26F007060836D8E7361DD6E728461C
:10033000DAE7206ABDE8F08170B50C460546012A6F
:1003400005D02878800600D5EA69002302E0012361
:1003500005E05B1C934202D2E05C0028F9D1A86959
:10036000E618C01AA861286A184428622846AFF324
:10037000008004E0D5E9012114F8010B9047B44254
:10038000F8D32846AFF3008070BD00002DE9F0419E
:100390000646002410687529314616A510D0AFF323
:1003A0000080002802DA404213A507E031688A077E
:1003B00001D512A502E0490704D511A5012401E0E9
:1003C000AFF3008000210A2206F1240709E0B0FB08
:1003D000F2FCB0FBF2F302FB1C00303078541846FC
:1003E000491C0028F3D123462A463046BDE8F04197
:1003F00000F080B8000000002D0000002B0000007D
:1004000020000000032A40F2308010F0030C00F0BE
:10041000158011F8013BBCF1020F624498BF11F83E
:1004200001CB00F8013B38BF11F8013BA2F10402F7
:1004300098BF00F801CB38BF00F8013B11F003036F
:1004400000F0F280083AC0F0088051F8043B083A06
:1004500051F804CBA0E80810F5E7121D5CBF51F875
:10046000043B40F8043BAFF30080D20724BF11F8EF
:10047000013B11F801CB48BF11F8012B24BF00F854
:10048000013B00F801CB48BF00F8012B704702F098
:10049000FF0343EA032242EA024200F0F9B84FF0B8
:1004A000000200B5134694469646203922BFA0E8C4
:1004B0000C50A0E80C50B1F12001BFF4F7AF0907D0
:1004C00028BFA0E80C5048BF0CC05DF804EB8900C1
:1004D00028BF40F8042B08BF704748BF20F8022B04
:1004E00011F0804F18BF00F8012B7047704770471C
:1004F000704770472DE9F0470D46994692460446ED
:1005000000F124080168880604D5E06921F0100193
:10051000216000E00120A84201DD471B00E0002728
:10052000A1697A1902EB0900081AA0612078C006B7
:1005300002D42046AFF30080002608E0D4E9012170
:100540001AF806009047206A401C761C20624E452F
:10055000F4DB2078C0060AD52046AFF3008006E021
:10056000D4E9012130209047206A401C2062381EC7
:10057000A7F10107F4DC07E0D4E9012118F8050030
:100580009047206A401C2062281EA5F10105F3DC7B
:100590002046AFF300802078000602D50220BDE897
:1005A000F0870120FBE7000001694A1C026108781E
:1005B000704700B58FB0CDE90131002105910549A3
:1005C0007944CDE9031011466846FFF781FE0FB06C
:1005D00000BD0000E5FFFFFF10B5436913B1AFF3A5
:1005E000008001E0FFF7A8FE012010BD127800F1A5
:1005F00024010A7000224A700122EDE711684FF0D1
:10060000FF32E9E7074B70B50D467B44FFF7D1FF9A
:100610000446284600F05CF810B14FF0FF3070BD82
:10062000204670BD2B23000010B5203AC0F00B808F
:10063000B1E81850203AA0E81850B1E81850A0E8E6
:100640001850BFF4F5AF5FEA027C24BFB1E8185040
:10065000A0E8185044BF18C918C0BDE810405FEAB0
:10066000827C24BF51F8043B40F8043B08BF70472C
:10067000D20728BF31F8023B48BF11F8012B28BF31
:1006800020F8023B48BF00F8012B70474FF00002F2
:100690000429C0F0128010F0030C3FF402AFCCF13B
:1006A000040CBCF1020F18BF00F8012BA8BF20F802
:1006B000022BA1EB0C01FFF7F4BE5FEAC17C24BF63
:1006C00000F8012B00F8012B48BF00F8012B704700
:1006D000007B00F080007047754600F029F8AE46B8
:1006E00005006946534620F00700854618B020B53E
:1006F000FFF7CEFDBDE820404FF000064FF00007A9
:100700004FF000084FF0000B21F00701AC46ACE8B9
:10071000C009ACE8C009ACE8C009ACE8C0098D4626
:1007200070470446AFF300802046FFF750FD0000FD
:10073000004870470CAE002000BFFEE77047000085
:1007400010B5012000F0FAF901200149086010BD40
:100750001404014010B5042000F0F0F90420014910
:10076000086010BD1404014010B5082000F0E6F93F
:1007700008200149086010BD1404014010B5102084
:1007800000F0DCF910200149086010BD140401409C
:1007900010B51648006800F4807010B31448007853
:1007A000C0B900BF00224021124800F087FB00BF03
:1007B00000BF012240210F4800F080FB00BF00BFB6
:1007C000012208210C4800F079FB00BF01200849F4
:1007D000087006E000BF00220821074800F06EFB09
:1007E00000BF4FF480700149086010BD140401403F
:1007F0003900002000140140000C014070B504468F
:10080000B3F5804F13D1D1E9000540EA05108D689A
:1008100040EA05208D6928438D8940EA054054F857
:100820002250064E3540284344F8220003E06FF082
:10083000704044F82200002070BD00000000F0CF9E
:1008400070B50246086852F8200020F001000E68DA
:1008500042F826008868082801D1402300E00023E0
:10086000486818438E683043CE6830430E69304381
:100870004E693043CE6930430E6A30434E6A30438E
:100880008E6A3043CE6A30430E6B40EA06048869B4
:100890000443486B0443074D45F4806545F4E02567
:1008A000086852F82000A84320430E6842F826004A
:1008B000002070BD7FFB080010B50346D1E900049D
:1008C00040EA04108C6840EA04208C8940EA044421
:1008D000088A401E44EA0054087D801E44EA0060F5
:1008E0008C692043541C53F8244004F040442043B6
:1008F000541C43F82400002010BD000070B50446CD
:10090000002594F82100022803D00420A0630125CB
:10091000C1E02068006820F00E00216808602068AF
:10092000006820F00100216808605C492068884266
:1009300052D95A4978392068884201D1012047E0CC
:10094000564964392068884201D1102040E053495B
:1009500050392068884201D1801539E04F493C392F
:100960002068884201D1801432E04C49283920683F
:10097000884202D14FF480302AE048491439206877
:10098000884202D14FF4801022E044492068884216
:1009900001D140041CE042492068884201D1012075
:1009A00016E03F4914312068884201D110200FE041
:1009B0003B4928312068884201D1801508E0384938
:1009C0003C312068884201D1801401E04FF480302E
:1009D0003349091F086051E030497839206888425E
:1009E00001D1012047E02D4964392068884201D1B6
:1009F000102040E0294950392068884201D18015F3
:100A000039E026493C392068884201D1801432E01F
:100A1000224928392068884202D14FF480302AE0E8
:100A20001E4914392068884202D14FF4801022E018
:100A30001A492068884201D140041CE01849206806
:100A4000884201D1012016E01549143120688842FE
:100A500001D110200FE0124928312068884201D1CD
:100A6000801508E00E493C312068884201D180148D
:100A700001E04FF48030094980394860012084F852
:100A8000210000BF002084F8200000BF606B10B17F
:100A90002046616B8847284670BD000080000240F8
:100AA0000804024010B50446142001F0FDFE012C9C
:100AB0002FD0042C21D0082C13D0102C36D110218B
:100AC0001B4800F0E9F958B900BF2021194800F08F
:100AD000EBF900BF00BF2021154800F0E5F900BF89
:100AE00024E00821124800F0D7F928B900BF2021DE
:100AF000104800F0D9F900BF18E004210C4800F0BC
:100B0000CBF928B900BF2021094800F0CDF900BF7A
:100B10000CE00121084800F0BFF9012805D100BF11
:100B20000102044800F0C0F900BF00BF00BF10BDC3
:100B300000180140000C01400008014010B50446B7
:100B400004480068204020B1024804602046FFF7B6
:100B5000A9FF10BD140401402DE9F8470246002307
:100B60009C467BE14FF0010808FA03F4D1F80080BD
:100B700008EA0400A0427DD1DFF8F4A2D1F8048095
:100B8000A8EB0A09D0453AD014DCB8F1030F50D0D5
:100B900009DCB8F1000F31D0B8F1010F1CD0B8F169
:100BA000020F49D120E0B8F1110F18D0B8F1120F9F
:100BB00042D11EE0B9F5881F25D006DCB9F5803F8B
:100BC00020D0B9F5801F37D11AE0B9F5001F18D031
:100BD000B9F5041F30D117E0D1F80CC02DE0D1F8E1
:100BE0000C8008F1040C28E0D1F80C8008F1080C06
:100BF00023E0D1F80C8008F10C0C1EE000BF00BF10
:100C000000BF00BF00BF00BFD1F80880B8F1000FDF
:100C100002D14FF0040C0BE0D1F80880B8F1010FBD
:100C200003D14FF0080C146102E04FF0080C54613E
:100C300003E04FF0000C00E000BF00BFFF2801D828
:100C4000904601E002F104084646FF2802D84FEA28
:100C5000830803E0A3F108084FEA88084746D6F85E
:100C600000804FF00F0909FA07F928EA09080CFA81
:100C700007F900E07AE048EA0908C6F80080D1F8F0
:100C8000048008F08058B8F1805F6FD100BFDFF8B2
:100C9000E481D8F8188048F00108DFF8D891C9F845
:100CA0001880C846D8F8188008F00108CDF80080F0
:100CB00000BF00BF4FEAB9384FEA930958F82950EE
:100CC0004FEA83784FEA18794FF00F0808FA09F8CD
:100CD00025EA0805DFF8A081424502D14FF000085F
:100CE00024E0DFF89881424502D14FF001081DE071
:100CF000DFF88C81424502D14FF0020816E0DFF8A0
:100D00008481424502D14FF003080FE0DFF878817B
:100D1000424502D14FF0040808E0DFF870814245F7
:100D200002D14FF0050801E04FF006084FEA837941
:100D30004FEA197908FA09F848EA0505DFF8508101
:100D40004FEA930948F82950D1F8048008F4803814
:100D5000B8F5803F0BD1DFF83C81D8F8008048EA35
:100D60000008DFF83091C9F800800AE075E0DFF88C
:100D70002481D8F8008028EA0008DFF81891C9F823
:100D80000080D1F8048008F40038B8F5003F0ED197
:100D9000DFF8008108F10408D8F8008048EA00086C
:100DA000DFF8F09009F10409C9F800800DE0DFF8E0
:100DB000E48008F10408D8F8008028EA0008DFF889
:100DC000D49009F10409C9F80080D1F8048008F42E
:100DD0008018B8F5801F0ED1DFF8B88008F1080838
:100DE000D8F8008048EA0008DFF8A89009F108095F
:100DF000C9F800800DE0DFF89C8008F10808D8F8F9
:100E0000008028EA0008DFF88C9009F10809C9F889
:100E10000080D1F8048008F40018B8F5001F0ED146
:100E2000DFF8708008F10C08D8F8008048EA000864
:100E3000DFF8609009F10C09C9F800800DE0DFF8D7
:100E4000548008F10C08D8F8008028EA0008DFF880
:100E5000449009F10C09C9F800805B1CD1F80080AE
:100E600028FA03F8B8F1000F7FF47CAEBDE8F887EC
:100E7000000011100010024000080140000C014069
:100E8000001001400014014000180140001C014006
:100E90000800014000040140024693680B400BB17A
:100EA000012000E00020704710B5C26821EA02036B
:100EB00002EA010443EA0443036110BD0AB101617F
:100EC00001E00B04036170470148006870470000AF
:100ED00024000020034800680349097808440149B8
:100EE00008607047240000202C00002010B508483E
:100EF000006840F0100006490860032000F080F808
:100F00000F2000F007F800F02BF8002010BD0000C3
:100F10000020024070B504460E4800784FF47A7104
:100F2000B1FBF0F00C490968B1FBF0F5284600F080
:100F3000ABFE08B1012070BD102C07D20022214663
:100F4000501E00F01EF80548046001E00120F2E7A1
:100F50000020F0E72C0000200000002028000020E6
:100F6000704701460846002809DB00F01F030122F4
:100F70009A4043099B0003F1E023C3F8002100BF1E
:100F800070472DE9F05F80460D461646002701F0B8
:100F9000E9FB074639462A46334601F00700C0F10F
:100FA000070ABAF1040F02D94FF0040A01E0C0F1B8
:100FB000070AD14600F1040ABAF1070F02D24FF036
:100FC000000A01E0A0F1030AD4464FF0010A0AFA30
:100FD00009FAAAF1010A0AEA020A0AFA0CFA4FF01F
:100FE000010B0BFA0CFBABF1010B0BEA030B4AEA0A
:100FF0000B042146404601F0BDFBBDE8F09F000018
:1010000000BF00F00702064B19684FF6FF031940B6
:10101000044B0B4343EA0221014B196000BF7047A8
:101020000CED00E00000FA0570B504460D460CB961
:10103000012070BD5A48006800F00700A8420ED297
:101040005748006820F007002843554908600846C3
:10105000006800F00700A84201D00120E9E72078ED
:1010600000F0020002281DD1207800F004000428BE
:1010700005D14C48406840F4E0604A494860207817
:1010800000F00800082805D14648406840F4605048
:10109000444948604348406820F0F000A168084394
:1010A00040494860207800F0010078B3606801286A
:1010B00006D13C48006800F4003090B90120B8E740
:1010C0006068022806D13748006800F0007040B917
:1010D0000120AEE73348006800F0020008B90120A3
:1010E000A7E73048406820F00300616808432D49B5
:1010F0004860FFF7E9FE064609E0FFF7E5FE801BC2
:1011000041F28831884202D9032092E707E025485E
:10111000406800F00C006168B0EB810FEDD1204811
:10112000006800F00700A8420ED91D48006820F0B2
:10113000070028431A4908600846006800F00700C5
:10114000A84201D0012074E7207800F004000428B0
:1011500007D11448406820F4E060E1680843114971
:101160004860207800F00800082808D10D48406841
:1011700020F46050216940EAC1000A49486000F04B
:101180003FF808494968C1F30311074A515CC84058
:101190000649086006480068FFF7BCFE002048E7E3
:1011A0000020024000100240F897000800000020D4
:1011B000280000200148006870470000000000205F
:1011C00000B5FFF7F7FF04494968C1F30221034A5C
:1011D000515CC84000BD00000010024008980008A3
:1011E00000B5FFF7E7FF04494968C1F3C221034A8C
:1011F000515CC84000BD0000001002400898000883
:10120000F0B585B00FF26C0C9CE8E01001A8A0E8E6
:10121000E0101CA52D680095002100220023002469
:101220000020194D696801F00C05F5B1042D02D0BC
:10123000082D19D101E0154819E001ADC1F383462D
:10124000AC5D01F4803555B10F4D6D68C5F3404577
:101250001DF805200D4D6543B5FBF2F302E00C4D82
:1012600004FB05F3184602E000BF084800BF00BFBA
:1012700005B0F0BD02030405060708090A0B0C0DB2
:101280000E0F1010010200000010024000127A0040
:1012900000093D00F8B504460CB90120F8BD2078DE
:1012A00000F00100002878D0F848406800F00C00F9
:1012B00004280CD0F548406800F00C00082811D133
:1012C000F248406800F48030B0F5803F0AD1EF4822
:1012D000006800F4003000285FD0606800285CD10E
:1012E0000120DBE700BF6068B0F5803F06D1E7482A
:1012F000006840F48030E549086028E0606858B92B
:10130000E248006820F48030E04908600846006840
:1013100020F4802008601AE06068B0F5A02F0BD19F
:10132000DA48006840F48020D84908600846006820
:1013300040F4803008600AE0D448006820F480302F
:10134000D24908600846006820F48020086000BF89
:10135000606888B1FFF7B8FD054606E0FFF7B4FD09
:10136000401B642801D9032098E7C848006800F4AE
:1013700000300028F2D010E0FFF7A6FD054606E099
:10138000FFF7A2FD401B642801D9032086E7BF4870
:10139000006800F400300028F2D1207800F002004C
:1013A000022857D1B948406800F00C0050B1B74846
:1013B000406800F00C00082818D1B448406800F4D8
:1013C000803098B9B148006800F0020020B120696F
:1013D000012801D0012061E7AC48006820F0F80046
:1013E000616940EAC100A949086033E02069E8B1B9
:1013F0000120A7490860FFF767FD054606E0FFF7F3
:1014000063FD401B022801D9032047E79F4800687D
:1014100000F002000028F2D09C48006820F0F8009C
:10142000616940EAC1009949086013E000209849C9
:101430000860FFF749FD054606E0FFF745FD401B44
:10144000022801D9032029E79048006800F0020033
:101450000028F2D1207800F0080008282DD1A069DA
:10146000B8B101208B490860FFF72EFD054606E064
:10147000FFF72AFD401B022801D903200EE783480D
:10148000406A00F002000028F2D0012000F03EFF88
:1014900013E000207F490860FFF716FD054606E0CF
:1014A000FFF712FD401B022801D90320F6E677481A
:1014B000406A00F002000028F2D1207800F0040019
:1014C000042873D100277148C06900F0805070B9BA
:1014D00000BF6E48C06940F080506C49C861084642
:1014E000C06900F08050009000BF00BF01276A482B
:1014F000006800F48070B0B96748006840F48070FC
:1015000065490860FFF7E0FC054606E0FFF7DCFCF4
:10151000401B642801D90320C0E65F48006800F43E
:1015200080700028F2D000BFE068012806D157483B
:10153000006A40F001005549086227E0E06858B9A8
:101540005248006A20F00100504908620846006ACB
:1015500020F00400086219E0E06805280BD14B4830
:10156000006A40F00400494908620846006A40F0F9
:10157000010008620AE04548006A20F00100434982
:1015800008620846006A20F00400086200BFE068B4
:10159000A0B1FFF799FC054609E0FFF795FC401B59
:1015A00041F28831884202D9032077E622E03748A9
:1015B000006A00F002000028EFD012E0FFF784FC80
:1015C000054608E0FFF780FC401B41F28831884265
:1015D00001D9032062E62D48006A00F002000028CD
:1015E000F0D1012F05D12948C06920F0805027494A
:1015F000C86100BFE069C8B32448406800F00C002F
:10160000082860D0E069022848D1002020490866F7
:10161000FFF75AFC054606E0FFF756FC401B022880
:1016200001D903203AE61948006800F0007000284C
:10163000F2D1206AB0F5803F07D11448406820F409
:101640000030A168084311494860D4E90801084303
:101650000E49496821F4741108430C49486001207F
:101660000B490866FFF730FC054607E03DE0FFF751
:101670002BFC401B022801D903200FE60348006819
:1016800000F000700028F2D02FE0000000100240AF
:101690000000424280044242007000400020144991
:1016A0000866FFF711FC054606E0FFF70DFC401B3E
:1016B000022801D90320F1E50E48006800F000700F
:1016C0000028F2D111E0E069012800D1E6E50948DF
:1016D000466806F48031206A814204D106F4701114
:1016E000606A814201D00120D8E50020D6E50000E3
:1016F000000042420010024010B504460CB901201F
:1017000010BD606A38B96068B0F5827F00D105E02D
:101710000021E16102E0002121616161A06AB0F570
:10172000005F00D100BF94F8510028B9002084F870
:101730005000204600F04AF8022084F8510020684A
:10174000006820F0400021680860A08800F48270E2
:10175000218901F404410843A18901F4006108438F
:10176000217C01F002010843217D01F001010843C1
:10177000218B01F400710843217F01F038010843F7
:101780002021095D01F080010843218D01F4005101
:101790000843216808600421A06901EA104021681B
:1017A0004860A06AB0F5005F03D1A08D80B22168C7
:1017B00008612068C06920F400602168C8610020C9
:1017C0006065012084F85100002099E710B586B0CB
:1017D000044627492068884248D100BF00BF2548F9
:1017E000806940F00800234988610846806900F05C
:1017F0000800019000BF00BF00BF00BF00BF084647
:10180000806940F0080088610846806900F008009F
:10181000019000BF00BF00BF00BF00BF0846806945
:1018200040F0080088610846806900F008000190D7
:1018300000BF00BF00BF4FF4005002900220039091
:10184000012004900320059002A90B48FFF784F9BA
:101850004FF48040029002A90748FFF77DF94FF44A
:101860000040029002A90448FFF776F906B010BDC7
:101870000038004000100240000C01402DE9FF5FDD
:101880000446884691461D460E9E01200290002087
:10189000019000BF94F85000012803D1022004B049
:1018A000BDE8F09F012084F8500000BFFFF70CFB5B
:1018B000074694F851B060680390AA46BBF1010F47
:1018C0000BD00398B0F5827F04D1A06810B9BBF1AA
:1018D000040F02D0022001903DE1B8F1000F03D0C7
:1018E000B9F1000F00D015B90120019033E194F84F
:1018F0005100042802D0052084F8510000206065C2
:10190000C4F83890E587A587C4F83080E586A586B9
:1019100020646064A06AB0F5005F0DD100BF20684C
:10192000006820F40050216808602068006840F4D6
:1019300000502168086000BF2068006800F0400087
:10194000402805D02068006840F040002168086009
:10195000E068B0F5006F56D1606810B1BAF1010FC0
:1019600009D1206B00882168C860206B801C20632F
:10197000E08E401EE0863FE02068806800F00200B4
:1019800002281CD1E08ED0B10298012817D1206B1B
:1019900000882168C860206B801C2063E08E401E98
:1019A000E08600200290E08E48B9A06AB0F5005FA2
:1019B00005D12068006840F48050216808602068E4
:1019C000806800F0010068B1E08F58B12068C068FD
:1019D000A16B0880A06B801CA063E08F401EE08795
:1019E00001200290FFF770FAC01BB04204D3701CB4
:1019F00010B103200190AEE0E08E0028BCD1E08F52
:101A00000028B9D156E0606810B1BAF1010F09D1D0
:101A1000206B007821680873206B401C2063E08EE7
:101A2000401EE08640E02068806800F00200022846
:101A30001CD1E08ED0B10298012817D1206B00781C
:101A400021680873206B401C2063E08E401EE086F6
:101A500000200290E08E48B9A06AB0F5005F05D181
:101A60002068006840F48050216808602068806821
:101A700000F0010068B1E08F58B12068C068A16B28
:101A80000870A06B401CA063E08F401EE08701201F
:101A90000290FFF719FAC01BB04201D3701C00B9C5
:101AA00016B90320019056E0E08E0028BBD1E08FEC
:101AB0000028B8D1A06AB0F5005F10D133460122EA
:101AC00011462046009700F04DFC30B1606D40F0AB
:101AD00002006065032001903DE02068C068206836
:101AE0008068C0F30010E8B1204600F037FC012800
:101AF00014D1606D40F00200606500BF206800688E
:101B000020F40050216808602068006840F400500C
:101B10002168086000BF0120019003E04FF6EF70DC
:101B2000216888603A463146204600F003FC20B127
:101B300001200190202060650DE0A06850B900BF31
:101B4000002000902068C0680090206880680090A5
:101B500000BF00BF00BF012084F8510000BF00207B
:101B600084F8500000BF019899E670B504460E460F
:101B700015461CB1A069B0F5807F01D1012070BD70
:101B800094F8410028B9002084F84000204600F075
:101B90001FF804F108012068FEF752FE3146A268E2
:101BA0002068FEF789FE2946236BD4E90102FEF77F
:101BB00025FEA168206850F8210040F00100A268CD
:101BC000216841F82200012084F841000020D6E776
:101BD00010B586B0044600BF1E48406940F48070CE
:101BE0001C4948610846406900F48070019000BFBC
:101BF00000BF00BF0846806940F0200088610846A9
:101C0000806900F02000019000BF00BF00BF0846BF
:101C1000806940F0400088610846806900F040001B
:101C2000019000BF00BF4CF20370029002200390AD
:101C3000012004900320059002A90748FEF78CFFBD
:101C40004FF68070029002A90448FEF785FF06B0A7
:101C500010BD0000001002400014014000180140B7
:101C6000042808D14FF0E021096941F004014FF048
:101C7000E022116107E04FF0E021096921F0040141
:101C80004FF0E0221161704770B504462546681E8A
:101C9000B0F1807F01D301200FE0681E4FF0E021FA
:101CA00048610F214FF0FF3000F064FD00204FF03D
:101CB000E021886107200861002070BD70477047EF
:101CC00010B504460CB9012010BD94F83D0028B9A8
:101CD000002084F83C00204600F025F8022084F81B
:101CE0003D00211D206800F0BDFB012084F8460066
:101CF00000BF84F83E0001213F20015540200155DE
:101D00004120015500BF00BF012084F8420043205C
:101D10000155442001554520015500BF012084F89C
:101D20003D000020D0E77047014691F83D000128B2
:101D300001D001207047022081F83D000868C0688A
:101D400040F001000B68D860164B0868984213D029
:101D5000154B086898420FD00868B0F1804F0BD03F
:101D6000124B0868984207D0114B0868984203D07C
:101D7000104B086898420CD10868806800F0070290
:101D8000062A0CD00868006840F001000B68186053
:101D900005E00868006840F001000B68186000204A
:101DA000C8E70000002C014000340140000400405E
:101DB00000080040000C0040704710B50446206841
:101DC0000069C0F34000D8B12068C068C0F340008B
:101DD000B0B16FF00200216808610120207720680F
:101DE000806900F0030018B12046FFF7E5FF05E029
:101DF000204600F0ADF8204600F0ABF80020207738
:101E000020680069C0F38000D8B12068C068C0F3C2
:101E10008000B0B16FF004002168086102202077D3
:101E20002068806900F4407018B12046FFF7C4FFB5
:101E300005E0204600F08CF8204600F08AF80020EB
:101E4000207720680069C0F3C000D8B12068C0685E
:101E5000C0F3C000B0B16FF0080021680861042031
:101E600020772068C06900F0030018B12046FFF712
:101E7000A3FF05E0204600F06BF8204600F069F86B
:101E80000020207720680069C0F30010D8B12068D6
:101E9000C068C0F30010B0B16FF010002168086195
:101EA000082020772068C06900F4407018B12046EF
:101EB000FFF782FF05E0204600F04AF8204600F0D8
:101EC00048F8002020772068006900F0010058B130
:101ED0002068C06800F0010030B16FF00100216897
:101EE0000861204600F036F820680069C0F3C01091
:101EF00058B12068C068C0F3C01030B16FF08000E6
:101F0000216808612046FFF7D9FE20680069C0F308
:101F1000801058B12068C068C0F3801030B16FF0F5
:101F2000400021680861204600F024F8206800691C
:101F3000C0F3401058B12068C068C0F3401030B101
:101F40006FF02000216808612046FFF7B8FE10BD41
:101F50007047704710B504460448844205D100BF5D
:101F600020210348FEF7A0FF00BF10BD8002002023
:101F700000180140704770472DE9F047044620687B
:101F800005682068C668206847694FF00008C146A8
:101F900005F00F08B8F1000F0AD105F0200038B1A4
:101FA00006F0200020B1204600F0D4FABDE8F0870A
:101FB000B8F1000F71D007F0010018B906F4907065
:101FC00000286AD005F0010030B106F4807018B125
:101FD000E06B40F00100E06305F0040030B107F071
:101FE000010018B1E06B40F00200E06305F0020070
:101FF00030B107F0010018B1E06B40F00400E0637D
:1020000005F0080048B106F0200010B907F0010003
:1020100018B1E06B40F00800E063E06B68B305F0D6
:10202000200028B106F0200010B1204600F092FAFE
:1020300020684069C0F38019E06B00F0080010B917
:10204000B9F1000F22D0204600F064FA2068406900
:1020500000F04000B0B12068406920F040002168E5
:102060004861606B50B11848616B4863606BFEF764
:1020700045FC10B1606B416B88470CE02046FFF7D0
:102080007AFF08E02046FFF776FF04E02046FFF7DE
:1020900072FF0020E06389E7FFE705F0800030B1C0
:1020A00006F0800018B1204600F022FB7EE705F024
:1020B000400030B106F0400018B1204600F03AFA76
:1020C00074E700BF72E700000125000810B5044660
:1020D0000CB9012010BDA06900B100E000BF94F868
:1020E000390028B9002084F83800204600F028F88C
:1020F000242084F839002068C06820F4005021684A
:10210000C860204600F076FA2068006920F490400C
:10211000216808612068406920F02A002168486130
:102120002068C06840F400502168C8600020E06367
:10213000202084F8390084F83A000020CAE7000023
:1021400010B586B004462849206888424AD100BFAD
:1021500000BF2648806940F0040024498861084691
:10216000806900F00400019000BF00BF00BF00BF05
:1021700000BF0846806940F0040088610846806915
:1021800000F00400019000BF00BF00BF00BF00BF0F
:102190000846806940F4804088610846806900F400
:1021A0008040019000BF00BF00BF48150290022090
:1021B0000390012004900320059002A90C48FEF72B
:1021C000CBFC4FF4806002900020039002A90848E5
:1021D000FEF7C2FC2520FEF7C4FE0322114625208F
:1021E000FEF7CFFE06B010BD0038014000100240DF
:1021F0000008014010B5034693F83A0020282FD17B
:1022000001B10AB9012010BD00BF93F838000128C0
:1022100001D10220F7E7012083F8380000BF99625E
:102220009A85DA850020D863222083F83A0000BF1F
:10223000002083F8380000BF1868C06840F4807040
:102240001C68E0601868406940F001001C6860612B
:102250001868C06840F020001C68E0600020D2E7E9
:102260000220D0E710B504462049206888423BD1BF
:102270001F48008800F4004088BB1D48008800F417
:10228000804070B11B4800780A2803D0002018490C
:10229000088024E01648008840F400401449088073
:1022A0001DE0144800780D2806D11148008840F43C
:1022B00080400F49088012E00E4800780C490988D8
:1022C000C1F30D010C4A505409480088401C0849CC
:1022D000088008460088C72801DD00200880012208
:1022E00004490648FFF786FF10BD00000038014092
:1022F0002000002022000020D8000020A0010020A3
:10230000704700BFFEE700BFFEE7704708B5084909
:102310000968C9084FF47A72B1FBF2F141430091A8
:1023200000BF00BF00994A1E00920029F9D108BDE4
:1023300000000020F8B504460D4616462B46002244
:1023400080212046009600F00DF828B1606D40F025
:10235000200060650320F8BD0020FCE70146012055
:10236000704700002DE9F84F04460D4690461E4682
:10237000DDF82890FEF7A8FDA0EB0900371AFEF75C
:10238000A3FD82462C480068C0F3CB307843009010
:1023900045E0701C002842D0FEF796FDA0EB0A0035
:1023A000B84200D2A7BB2068406820F0E000216856
:1023B00048606068B0F5827F0DD1A068B0F5004F2D
:1023C00003D0A068B0F5806F05D12068006820F0C8
:1023D000400021680860A06AB0F5005F0DD100BF21
:1023E0002068006820F400502168086020680068B8
:1023F00040F400502168086000BF012084F85100BB
:1024000000BF002084F8500000BF0320BDE8F88F13
:10241000FFE7009800B900270098401E0090206850
:1024200080682840A84201D1012000E000204045FA
:10243000AFD10020EAE700000000002010B5FEF751
:1024400049FD06F053FD012801D006F027FA10BD22
:102450007047000010B50248FFF7AFFC10BD000048
:102460008002002010B50268204B98420ED0204B0D
:1024700098420BD0B0F1804F08D01E4B984205D047
:102480001D4B984202D01D4B984203D122F070029E
:102490004B681A43154B98420ED0154B98420BD0FF
:1024A000B0F1804F08D0134B984205D0124B9842A0
:1024B00002D0124B984203D122F44072CB681A43E7
:1024C00022F080034C6943EA040202608B68C36215
:1024D0000B688362054B984202D0054B984201D1AC
:1024E0000B6903630123436110BD0000002C014010
:1024F000003401400004004000080040000C00408F
:1025000070B505466C6A0020E085E0842046FFF740
:1025100032FD70BD0168C96821F490710268D16014
:102520000168496921F0010102685161202180F8A8
:102530003A10704710B504462068C06820F040008B
:102540002168C860202084F839002046FFF7D8FEB3
:10255000002010BD70B5044694F83A00222847D1F7
:10256000A068B0F5805F0CD1206950B90025A66A3B
:1025700020684068C0F308003080A06A801CA06218
:1025800015E0A56A0026A068B0F5805F03D0A068BA
:1025900028B9206918B920684068287004E02068CC
:1025A000406800F07F002870A06A401CA062E08DA7
:1025B000401E80B2E085C8B92068C06820F02000C5
:1025C0002168C8602068C06820F480702168C860F5
:1025D0002068406920F0010021684861202084F8CB
:1025E0003A002046FFF73EFE002070BD0020FCE7C9
:1025F0000220FAE770B504462168096921F44051C8
:10260000E2681143226811612269A168114362697D
:1026100041EA02052168C96841F20C6291432943ED
:102620002268D1602168496921F44071A26911438F
:10263000226851612D4A2168914202D1FEF7D0FDF6
:1026400001E0FEF7BDFD00EBC00101EB0011626887
:102650009200B1FBF2F100EBC00202EB00126368E2
:102660009B00B2FBF3F26423B2FBF3F202EBC20372
:1026700003EB0212A1EB8201322202EB0111642270
:10268000B1FBF2F101F0F00100EBC00202EB00122D
:1026900063689B00B2FBF3F26423B2FBF3F201EB3D
:1026A000021200EBC00101EB001163689B00B1FB5B
:1026B000F3F100EBC00303EB00136668B600B3FB55
:1026C000F6F36426B3FBF6F303EBC30606EB031342
:1026D000A1EB8301322303EB01116423B1FBF3F17E
:1026E00001F00F0111442268916070BD0038014073
:1026F000014691F83900212828D18868B0F5805F1B
:102700000BD1086948B90A6A1088C0F308000B6841
:102710005860086A801C086205E00B6A581C086251
:1027200018780B685860C88C401E80B2C88458B9AD
:102730000868C06820F080000B68D8600868C0682E
:1027400040F040000B68D860002070470220FCE792
:1027500010B50248FFF710FC10BD0000A0010020DA
:1027600000BFFEE702480068C0F302207047000087
:102770000CED00E010B5002804DB0A07130E054A33
:10278000135406E00A07140E034A00F00F031B1F40
:10279000D45410BD00E400E018ED00E000BF704725
:1027A00000B585B000BF00BF1148806940F0080047
:1027B0000F4988610846806900F00800009000BF5A
:1027C00000BF00BF881501900120029003900320F4
:1027D000049001A90748FEF7BFF900BF00224FF49B
:1027E00080710448FEF76AFB00BF05B000BD000021
:1027F00000100240000C014038B504460D4600BFF1
:1028000000BF1248C06940F010001049C861084676
:10281000C06900F01000009000BF00BF00BF0C486E
:102820000C4908600846456000218160C460016170
:10283000FFF746FA032201213620FEF7A2FB3620DD
:10284000FEF78FFB0348FFF76FFA38BD0010024018
:10285000001000408002002070B5044600204FF0B8
:10286000E0210861FFF7FCF9E11704EB5171C1F3B6
:10287000CF010C4A1180E11704EB5171CD104FF4D8
:102880007A7045434FF0E020006940F002004FF0BD
:10289000E021086108464561006940F001000861D7
:1028A00070BD00001800002030B50446002504E08B
:1028B0004FF47A7000F004F86D1CA542F8D330BDD7
:1028C00070B5034600224FF0E02675690D4E36883C
:1028D00003FB06F44FF0E026B16910E04FF0E0266C
:1028E000B06988420BD0884202D20E1A324402E00C
:1028F0002E1A0E4432440146A24200D300E0EDE716
:1029000000BF70BD180000201FB54FF4807000900C
:102910000748019069460748FEF71EF90022114654
:102920001720FEF72EFB1720FEF71BFB1FBD000034
:10293000000011100008014000BF054A126802F0B3
:102940004002002AF9D0C2B2014B1B1D1A60704729
:10295000003801401CB50648012100238022CDE942
:10296000001004A1064806F091FA05F02BFE1CBDEC
:102970000400002073746172745F7461736B0000F3
:10298000897C000800B585B000BF00BF364880696B
:1029900040F04000344988610846806900F04000FA
:1029A000009000BF00BF00BF00BF00BF08468069A5
:1029B00040F0400088610846806900F040000090C7
:1029C00000BF00BF00BF00BF00BF0846806940F0E5
:1029D000400088610846806900F04000009000BF18
:1029E00000BF00BF00BF00BF0846806940F0040080
:1029F00088610846806900F00400009000BF00BFB5
:102A000000BF1020019000200290012003900320BD
:102A1000049001A91548FEF79FF8082001900020B6
:102A20000290012003900320049001A90F48FEF7B3
:102A300093F80420019000200290012003900320CD
:102A4000049001A90948FEF787F8012001900020B1
:102A50000290022003900320049001A90448FEF78D
:102A60007BF805B000BD00000010024000180140D6
:102A70000008014070B50446002514B101202B491F
:102A800008702A480078002834D010212848FEF722
:102A900003FA78B108212648FEF7FEF950B1042167
:102AA0002348FEF7F9F928B101212248FEF7F4F98D
:102AB00001281FD10A20FFF7F7FE00201B490870EC
:102AC00010211B48FEF7E8F900B901250821184834
:102AD000FEF7E2F900B9022504211548FEF7DCF9FA
:102AE00000B9032501211348FEF7D6F901281BD1AF
:102AF000042519E010210E48FEF7CEF9012813D164
:102B000008210B48FEF7C8F901280DD10421084817
:102B1000FEF7C2F9012807D101210648FEF7BCF9EA
:102B200010B9012001490870284670BD3800002006
:102B3000001801400008014070B50446002609480D
:102B40000588408845430021084603F04BF803F010
:102B5000A9FA00BF02E004480480761CAE42FAD312
:102B600070BD0000280200200008006C10B504466B
:102B700058488471002C58D1F020564908804FF4F1
:102B8000A07048800846808845F21051884210D1D4
:102B90004FF430504F4908814FF4285048814FF48A
:102BA0002C5088814FF4F07008804FF448704880B2
:102BB0001AE04848808841F6631188420DD12C20E4
:102BC000444908812B2048812A2088814FF4F070E5
:102BD00008804FF44870488006E02C203D49088169
:102BE0002A2048812B2088813A48808845F210317C
:102BF000884205D03748808847F29671884206D1CE
:102C00004FF4A070334908804FF4F0704880314889
:102C1000808849F60601884258D14FF4F0702D495A
:102C200008804FF44870488050E04FF4A070294964
:102C30000880F02048800846808845F2105188427C
:102C400010D14FF43050234908814FF42850488167
:102C50004FF42C5088814FF4487008804FF4F07086
:102C6000488020E01B48808841F66311884205D0E7
:102C70001848808849F6060188420DD12C20154954
:102C800008812A2048812B2088814FF448700880D1
:102C90004FF4F070488006E02C200E4908812A206D
:102CA00048812B2088810B48808845F2103188426A
:102CB00005D00848808847F29671884206D14FF4C3
:102CC000F070044908804FF4A0704880002002F0A2
:102CD0006BFE10BD2802002070B505460E46144656
:102CE0003146284602F07EFF03F0DCF901490C80F2
:102CF00070BD00000008006C10B5CF2003F0C6F9CD
:102D0000002003F0B7F9C12003F0B4F9302003F03C
:102D1000B1F9ED2003F0BAF9642003F0ABF9032018
:102D200003F0A8F9122003F0A5F9812003F0A2F91D
:102D3000E82003F0ABF9852003F09CF9102003F0A4
:102D400099F97A2003F096F9CB2003F09FF9392006
:102D500003F090F92C2003F08DF9002003F08AF99C
:102D6000342003F087F9022003F084F9F72003F000
:102D70008DF9202003F07EF9EA2003F087F9002086
:102D800003F078F9002003F075F9C02003F07EF914
:102D90001B2003F06FF9C12003F078F9012003F044
:102DA00069F9C52003F072F9302003F063F930208F
:102DB00003F060F9C72003F069F9B72003F05AF96E
:102DC000362003F063F9482003F054F93A2003F069
:102DD0005DF9552003F04EF9B12003F057F90020BA
:102DE00003F048F91A2003F045F9B62003F04EF934
:102DF0000A2003F03FF9A22003F03CF9F22003F08F
:102E000045F9002003F036F9262003F03FF90120B0
:102E100003F030F9E02003F039F90F2003F02AF92C
:102E20002A2003F027F9282003F024F9082003F0D2
:102E300021F90E2003F01EF9082003F01BF954209D
:102E400003F018F9A92003F015F9432003F012F953
:102E50000A2003F00FF90F2003F00CF9002003F013
:102E600009F9002003F006F9002003F003F900201F
:102E700003F000F9E12003F009F9002003F0FAF86B
:102E8000152003F0F7F8172003F0F4F8072003F0FB
:102E9000F1F8112003F0EEF8062003F0EBF82B20F8
:102EA00003F0E8F8562003F0E5F83C2003F0E2F8E0
:102EB000052003F0DFF8102003F0DCF80F2003F00A
:102EC000D9F83F2003F0D6F83F2003F0D3F80F20C5
:102ED00003F0D0F82B2003F0D9F8002003F0CAF853
:102EE000002003F0C7F8012003F0C4F83F2003F0EE
:102EF000C1F82A2003F0CAF8002003F0BBF8002034
:102F000003F0B8F8002003F0B5F8EF2003F0B2F8B2
:102F1000112003F0BBF87820FFF7C6FC292003F04E
:102F2000B5F810BD10B5FF2003F0B0F8FF2003F096
:102F3000A1F8982003F09EF8062003F09BF8BC202F
:102F400003F0A4F8012003F095F80F2003F092F8A5
:102F5000612003F08FF8FF2003F08CF8012003F0CC
:102F600089F8012003F086F80B2003F083F8102085
:102F700003F080F8372003F07DF8632003F07AF83F
:102F8000FF2003F077F8FF2003F074F8012003F02E
:102F900071F8012003F06EF8002003F06BF80020B8
:102FA00003F068F8FF2003F065F8522003F062F8A0
:102FB000012003F05FF8002003F05CF8402003F0EC
:102FC00059F8BD2003F062F8012003F053F82320E4
:102FD00003F050F8452003F04DF8672003F04AF85D
:102FE000012003F047F8232003F044F8452003F0C4
:102FF00041F8672003F03EF8BE2003F047F80020B8
:1030000003F038F8012003F035F8AB2003F032F874
:10301000602003F02FF8222003F02CF8222003F088
:1030200029F8222003F026F8222003F023F822209A
:1030300003F020F8C72003F029F8362003F01AF82F
:10304000ED2003F023F87F2003F014F80F2003F0A5
:1030500011F8C02003F01AF80F2003F00BF80B2032
:1030600003F008F80A2003F005F8FC2003F00EF83E
:10307000082002F0FFFFDF2003F008F8002002F034
:10308000F9FF002002F0F6FF002002F0F3FF00201D
:1030900002F0F0FF002002F0EDFF202002F0EAFF36
:1030A000F32002F0F3FF742002F0E4FFB42002F0FA
:1030B000EDFF002002F0DEFF002002F0DBFF002029
:1030C00002F0D8FFF72002F0E1FF822002F0D2FFE9
:1030D000B12002F0DBFF002002F0CCFF132002F051
:1030E000C9FF132002F0C6FFF22002F0CFFF8020BC
:1030F00002F0C0FF042002F0BDFF402002F0BAFF42
:10310000282002F0B7FFC12002F0C0FF172002F014
:10311000B1FF882002F0AEFF882002F0ABFF202034
:1031200002F0A8FFE02002F0B1FF002002F0A2FFB1
:103130000A2002F09FFF122002F09CFF102002F0F4
:1031400099FF0E2002F096FF202002F093FFCC2082
:1031500002F090FF072002F08DFF062002F08AFFA8
:103160000B2002F087FF0E2002F084FF0F2002F0F8
:1031700081FF0D2002F07EFF152002F07BFF102062
:1031800002F078FF002002F075FFE12002F07EFFE0
:10319000002002F06FFF0B2002F06CFF132002F002
:1031A00069FF0D2002F066FF0E2002F063FF1B2076
:1031B00002F060FF712002F05DFF062002F05AFF6E
:1031C000062002F057FF0A2002F054FF0F2002F001
:1031D00051FF0E2002F04EFF0F2002F04BFF152092
:1031E00002F048FF0C2002F045FF002002F042FFF1
:1031F0002A2002F04BFF002002F03CFF002002F0EA
:1032000039FF012002F036FFDF2002F033FF2B20D0
:1032100002F03CFF002002F02DFF002002F02AFF08
:10322000032002F027FF1F2002F024FF3A2002F0C3
:103230002DFF552002F01EFF362002F027FF002050
:1032400002F018FF112002F021FF7820FFF72CFB7D
:10325000292002F01BFF1420FFF726FB2C2002F090
:1032600015FF10BD10B5ED2002F010FF012002F097
:1032700001FFFE2002F0FEFEEE2002F007FFDE203E
:1032800002F0F8FE212002F0F5FEF12002F0FEFE31
:10329000012002F0EFFEDF2002F0F8FE102002F025
:1032A000E9FEC42002F0F2FE8F2002F0E3FEC62009
:1032B00002F0ECFE002002F0DDFEE22002F0DAFE79
:1032C000E22002F0D7FEE22002F0D4FEBF2002F09E
:1032D000DDFEAA2002F0CEFEB02002F0D7FE0D20C7
:1032E00002F0C8FE002002F0C5FE0D2002F0C2FE72
:1032F000002002F0BFFE112002F0BCFE002002F010
:10330000B9FE192002F0B6FE002002F0B3FE212023
:1033100002F0B0FE002002F0ADFE2D2002F0AAFE69
:10332000002002F0A7FE3D2002F0A4FE002002F0E3
:10333000A1FE5D2002F09EFE002002F09BFE5D20BB
:1033400002F098FE002002F095FEB12002F09EFEF1
:10335000802002F08FFE002002F08CFE8B2002F015
:1033600089FE002002F086FE962002F083FE0020F7
:1033700002F080FEB22002F089FE002002F07AFE08
:10338000002002F077FE022002F074FE002002F01E
:1033900071FE032002F06EFE002002F06BFEB320EF
:1033A00002F074FE002002F065FE002002F062FED2
:1033B000002002F05FFE002002F05CFE002002F020
:1033C00059FE002002F056FE002002F053FE0020BD
:1033D00002F050FE002002F04DFE002002F04AFEF6
:1033E000002002F047FE002002F044FE002002F020
:1033F00041FE002002F03EFE002002F03BFE0020D5
:1034000002F038FE002002F035FE002002F032FE0D
:10341000002002F02FFE002002F02CFE002002F01F
:1034200029FE002002F026FE002002F023FE0020EC
:1034300002F020FEB42002F029FE8B2002F01AFEDA
:10344000002002F017FE962002F014FE002002F089
:1034500011FEA12002F00EFE002002F00BFEB520AE
:1034600002F014FE022002F005FE002002F002FE2F
:10347000032002F0FFFD002002F0FCFD042002F01A
:10348000F9FD002002F0F6FDB62002F0FFFD00205D
:1034900002F0F0FD002002F0EDFDB72002F0F6FD95
:1034A000002002F0E7FD002002F0E4FD3F2002F0E2
:1034B000E1FD002002F0DEFD5E2002F0DBFD0020D9
:1034C00002F0D8FD642002F0D5FD002002F0D2FD0C
:1034D0008C2002F0CFFD002002F0CCFDAC2002F0E9
:1034E000C9FD002002F0C6FDDC2002F0C3FD002073
:1034F00002F0C0FD702002F0BDFD002002F0BAFD18
:10350000902002F0B7FD002002F0B4FDEB2002F0A5
:10351000B1FD002002F0AEFDDC2002F0ABFD00208A
:1035200002F0A8FDB82002F0B1FD002002F0A2FDDB
:10353000002002F09FFD002002F09CFD002002F020
:1035400099FD002002F096FD002002F093FD00207E
:1035500002F090FD002002F08DFDBA2002F096FDF1
:10356000242002F087FD002002F084FD002002F0FC
:1035700081FD002002F07EFDC12002F087FD2020A9
:1035800002F078FD002002F075FD542002F072FD7B
:10359000002002F06FFDFF2002F06CFD002002F021
:1035A00069FDC22002F072FD0A2002F063FD0020D6
:1035B00002F060FD042002F05DFD002002F05AFDE3
:1035C000C32002F063FD3C2002F054FD002002F015
:1035D00051FD3A2002F04EFD002002F04BFD392053
:1035E00002F048FD002002F045FD372002F042FDC8
:1035F000002002F03FFD3C2002F03CFD002002F0E4
:1036000039FD362002F036FD002002F033FD322075
:1036100002F030FD002002F02DFD2F2002F02AFDE7
:10362000002002F027FD2C2002F024FD002002F0F3
:1036300021FD292002F01EFD002002F01BFD2620A6
:1036400002F018FD002002F015FD242002F012FD0A
:10365000002002F00FFD242002F00CFD002002F0FB
:1036600009FD232002F006FD002002F003FD3C20AE
:1036700002F000FD002002F0FDFC362002F0FAFC12
:10368000002002F0F7FC322002F0F4FC002002F0EF
:10369000F1FC2F2002F0EEFC002002F0EBFC2C20CD
:1036A00002F0E8FC002002F0E5FC292002F0E2FC38
:1036B000002002F0DFFC262002F0DCFC002002F0FB
:1036C000D9FC242002F0D6FC002002F0D3FC2420F8
:1036D00002F0D0FC002002F0CDFC232002F0CAFC56
:1036E000002002F0C7FCC42002F0D0FC622002F0EF
:1036F000C1FC002002F0BEFC052002F0BBFC002053
:1037000002F0B8FC842002F0B5FC002002F0B2FC0C
:10371000F02002F0AFFC002002F0ACFC182002F018
:10372000A9FC002002F0A6FCA42002F0A3FC0020CB
:1037300002F0A0FC182002F09DFC002002F09AFC90
:10374000502002F097FC002002F094FC0C2002F0C4
:1037500091FC002002F08EFC172002F08BFC002070
:1037600002F088FC952002F085FC002002F082FC2B
:10377000F32002F07FFC002002F07CFCE62002F047
:1037800079FC002002F076FCC52002F07FFC32209C
:1037900002F070FC002002F06DFC442002F06AFC94
:1037A000002002F067FC652002F064FC002002F0BB
:1037B00061FC762002F05EFC002002F05BFC8820B9
:1037C00002F058FC002002F055FCC62002F05EFC1E
:1037D000202002F04FFC002002F04CFC172002F0E9
:1037E00049FC002002F046FC012002F043FC0020CE
:1037F00002F040FCC72002F049FC002002F03AFC35
:10380000002002F037FC002002F034FC002002F01F
:1038100031FCC82002F03AFC002002F02BFC002012
:1038200002F028FC002002F025FC002002F022FC1F
:10383000C92002F02BFC002002F01CFC002002F04A
:1038400019FC002002F016FC002002F013FC0020FE
:1038500002F010FC002002F00DFC002002F00AFC37
:10386000002002F007FC002002F004FC002002F01F
:1038700001FC002002F0FEFB002002F0FBFB002018
:1038800002F0F8FB002002F0F5FB002002F0F2FB52
:10389000002002F0EFFBE02002F0F8FB162002F01F
:1038A000E9FB002002F0E6FB1C2002F0E3FB002015
:1038B00002F0E0FB212002F0DDFB002002F0DAFB49
:1038C000362002F0D7FB002002F0D4FB462002F0A5
:1038D000D1FB002002F0CEFB522002F0CBFB0020F7
:1038E00002F0C8FB642002F0C5FB002002F0C2FB1E
:1038F0007A2002F0BFFB002002F0BCFB8B2002F01C
:10390000B9FB002002F0B6FB992002F0B3FB0020C7
:1039100002F0B0FBA82002F0ADFB002002F0AAFBF1
:10392000B92002F0A7FB002002F0A4FBC42002F0A3
:10393000A1FB002002F09EFBCA2002F09BFB0020AE
:1039400002F098FBD22002F095FB002002F092FBDF
:10395000D92002F08FFB002002F08CFBE02002F067
:1039600089FB002002F086FBF32002F083FB00209D
:1039700002F080FBE12002F089FB162002F07AFBC6
:10398000002002F077FB1C2002F074FB002002F004
:1039900071FB222002F06EFB002002F06BFB362050
:1039A00002F068FB002002F065FB452002F062FB9C
:1039B000002002F05FFB522002F05CFB002002F0CE
:1039C00059FB642002F056FB002002F053FB7A20E2
:1039D00002F050FB002002F04DFB8B2002F04AFB6E
:1039E000002002F047FB992002F044FB002002F087
:1039F00041FBA82002F03EFB002002F03BFBB92077
:103A000002F038FB002002F035FBC42002F032FB4C
:103A1000002002F02FFBCA2002F02CFB002002F055
:103A200029FBD22002F026FB002002F023FBD82045
:103A300002F020FB002002F01DFBE02002F01AFB48
:103A4000002002F017FBF32002F014FB002002F02C
:103A500011FBE22002F01AFB052002F00BFB002014
:103A600002F008FB0B2002F005FB002002F002FB35
:103A70001B2002F0FFFA002002F0FCFA342002F0D2
:103A8000F9FA002002F0F6FA442002F0F3FA0020DE
:103A900002F0F0FA4F2002F0EDFA002002F0EAFA0C
:103AA000612002F0E7FA002002F0E4FA792002F047
:103AB000E1FA002002F0DEFA882002F0DBFA0020B2
:103AC00002F0D8FA972002F0D5FA002002F0D2FADC
:103AD000A62002F0CFFA002002F0CCFAB72002F0C4
:103AE000C9FA002002F0C6FAC22002F0C3FA002090
:103AF00002F0C0FAC72002F0BDFA002002F0BAFAC4
:103B0000D12002F0B7FA002002F0B4FAD62002F079
:103B1000B1FA002002F0AEFADD2002F0ABFA00208C
:103B200002F0A8FAF32002F0A5FA002002F0A2FAAF
:103B3000E32002F0ABFA052002F09CFA002002F02C
:103B400099FA0A2002F096FA002002F093FA1C205B
:103B500002F090FA002002F08DFA332002F08AFA87
:103B6000002002F087FA442002F084FA002002F0DC
:103B700081FA502002F07EFA002002F07BFA6220E7
:103B800002F078FA002002F075FA782002F072FA5A
:103B9000002002F06FFA882002F06CFA002002F098
:103BA00069FA972002F066FA002002F063FAA62074
:103BB00002F060FA002002F05DFAB72002F05AFA33
:103BC000002002F057FAC22002F054FA002002F05E
:103BD00051FAC72002F04EFA002002F04BFAD12031
:103BE00002F048FA002002F045FAD52002F042FA2D
:103BF000002002F03FFADD2002F03CFA002002F043
:103C000039FAF32002F036FA002002F033FAE42009
:103C100002F03CFA012002F02DFA002002F02AFA0C
:103C2000012002F027FA002002F024FA022002F01C
:103C300021FA002002F01EFA2A2002F01BFA0020CE
:103C400002F018FA3C2002F015FA002002F012FAF5
:103C50004B2002F00FFA002002F00CFA5D2002F077
:103C600009FA002002F006FA742002F003FA00209C
:103C700002F000FA842002F0FDF9002002F0FAF9C7
:103C8000932002F0F7F9002002F0F4F9A22002F0EC
:103C9000F1F9002002F0EEF9B32002F0EBF9002078
:103CA00002F0E8F9BE2002F0E5F9002002F0E2F9A6
:103CB000C42002F0DFF9002002F0DCF9CD2002F090
:103CC000D9F9002002F0D6F9D32002F0D3F9002070
:103CD00002F0D0F9DD2002F0CDF9002002F0CAF99F
:103CE000F32002F0C7F9002002F0C4F9E52002F049
:103CF000CDF9002002F0BEF9002002F0BBF900204F
:103D000002F0B8F9002002F0B5F9022002F0B2F991
:103D1000002002F0AFF9292002F0ACF9002002F0F7
:103D2000A9F93C2002F0A6F9002002F0A3F94B20EB
:103D300002F0A0F9002002F09DF95D2002F09AF94E
:103D4000002002F097F9742002F094F9002002F0AC
:103D500091F9842002F08EF9002002F08BF9932073
:103D600002F088F9002002F085F9A22002F082F921
:103D7000002002F07FF9B32002F07CF9002002F06D
:103D800079F9BE2002F076F9002002F073F9C42020
:103D900002F070F9002002F06DF9CD2002F06AF90E
:103DA000002002F067F9D32002F064F9002002F04D
:103DB00061F9DC2002F05EF9002002F05BF9F320EB
:103DC00002F058F9002002F055F9E62002F05EF901
:103DD000112002F04FF9002002F04CF9342002F0DB
:103DE00049F9002002F046F9562002F043F900207C
:103DF00002F040F9762002F03DF9002002F03AF995
:103E0000772002F037F9002002F034F9662002F042
:103E100031F9002002F02EF9882002F02BF9002061
:103E200002F028F9992002F025F9002002F022F989
:103E3000BB2002F01FF9002002F01CF9992002F0CB
:103E400019F9002002F016F9662002F013F900209B
:103E500002F010F9552002F00DF9002002F00AF9E5
:103E6000552002F007F9002002F004F9452002F085
:103E700001F9002002F0FEF8432002F0FBF80020D8
:103E800002F0F8F8442002F0F5F8002002F0F2F811
:103E9000E72002F0FBF8322002F0ECF8002002F0FC
:103EA000E9F8552002F0E6F8002002F0E3F8762069
:103EB00002F0E0F8002002F0DDF8662002F0DAF807
:103EC000002002F0D7F8672002F0D4F8002002F0BA
:103ED000D1F8672002F0CEF8002002F0CBF887205E
:103EE00002F0C8F8002002F0C5F8992002F0C2F8EC
:103EF000002002F0BFF8BB2002F0BCF8002002F066
:103F0000B9F8992002F0B6F8002002F0B3F8772053
:103F100002F0B0F8002002F0ADF8442002F0AAF858
:103F2000002002F0A7F8562002F0A4F8002002F0CA
:103F3000A1F8232002F09EF8002002F09BF8332025
:103F400002F098F8002002F095F8452002F092F86F
:103F5000002002F08FF8E82002F098F8002002F02C
:103F600089F8002002F086F8992002F083F80020FA
:103F700002F080F8872002F07DF8002002F07AF845
:103F8000882002F077F8002002F074F8772002F021
:103F900071F8002002F06EF8662002F06BF8002045
:103FA00002F068F8882002F065F8002002F062F85C
:103FB000AA2002F05FF8002002F05CF8BB2002F0BB
:103FC00059F8002002F056F8992002F053F800202A
:103FD00002F050F8662002F04DF8002002F04AF896
:103FE000552002F047F8002002F044F8552002F076
:103FF00041F8002002F03EF8442002F03BF8002097
:1040000002F038F8442002F035F8002002F032F8CF
:10401000552002F02FF8002002F02CF8E92002F0E1
:1040200035F8AA2002F026F8002002F023F800203C
:1040300002F020F8002002F01DF8002002F026F81F
:10404000AA2002F017F8CF2002F020F8002002F09A
:1040500011F8002002F00EF8002002F00BF800200A
:1040600002F008F8002002F005F8002002F002F843
:10407000002001F0FFFF002001F0FCFF002001F014
:10408000F9FF002001F0F6FF002001F0F3FF00200F
:1040900001F0F0FF002001F0EDFF002001F0EAFF49
:1040A000002001F0E7FF002001F0E4FF002001F014
:1040B000E1FFF02001F0EAFF002001F0DBFF5020DB
:1040C00001F0D8FF002001F0D5FF002001F0D2FF61
:1040D000002001F0CFFFF32001F0D8FF002001F015
:1040E000C9FFF92001F0D2FF062001F0C3FF102024
:1040F00001F0C0FF292001F0BDFF002001F0BAFF50
:104100003A2001F0C3FF552001F0B4FF112001F067
:10411000BDFF6420FEF7C8FB292001F0B7FF352062
:1041200001F0B4FF002001F0A5FF512001F0AEFF27
:10413000FF2001F09FFF532001F0A8FF2C2001F089
:1041400099FF552001F0A2FF822001F093FF2C205F
:1041500001F09CFF10BD10B555214FF4704001F0E7
:10416000ABFFAA214FF2010001F0A6FF52214FF24E
:10417000020001F0A1FF08214FF2030001F09CFFB3
:1041800001214FF2040001F097FF0D214FF4304060
:1041900001F092FF0D214BF2010001F08DFF0D2186
:1041A0004BF2020001F088FF34214FF4364001F059
:1041B00083FF34214BF2016001F07EFF34214BF28A
:1041C000026001F079FF0D214FF4314001F074FFDE
:1041D0000D214BF2011001F06FFF0D214BF2021087
:1041E00001F06AFF34214FF4374001F065FF3421BC
:1041F0004BF2017001F060FF34214BF2027001F0CC
:104200005BFF00214FF4324001F056FF00214BF2DA
:10421000012001F051FF00214BF2022001F04CFF80
:1042200024214FF4384001F047FF24214BF60100D0
:1042300001F042FF24214BF6020001F03DFF012175
:104240004FF43F4001F038FF0F214FF4334001F0AD
:1042500033FF0F214BF2013001F02EFF0F214BF203
:10426000023001F029FF34214FF4394001F024FFDE
:1042700034214BF6011001F01FFF34214BF60210E0
:1042800001F01AFF08214FF4354001F015FF082115
:104290004BF2015001F010FF08214BF2025001F0E7
:1042A0000BFF03214FF4424001F006FF24214FF49D
:1042B0003A4001F001FF24214BF6012001F0FCFE01
:1042C00024214BF6022001F0F7FE00214FF43C4080
:1042D00001F0F2FE78214BF6014001F0EDFE0021E5
:1042E0004BF6024001F0E8FE00214FF43D4001F0A2
:1042F000E3FE78214BF6015001F0DEFE00214BF683
:10430000025001F0D9FE00214FF43E4001F0D4FEEE
:1043100064214BF6016001F0CFFE00214FF45140C3
:1043200001F0CAFE33214DF2011001F0C5FE00215B
:104330004DF2021001F0C0FE34214DF2031001F0E5
:10434000BBFE00214DF2041001F0B6FE3A214DF201
:10435000051001F0B1FE00214DF2061001F0ACFE97
:104360004A214DF2071001F0A7FE00214DF208107E
:1043700001F0A2FE5C214DF2091001F09DFE00212A
:104380004DF20A1001F098FE81214DF20B1001F060
:1043900093FE00214DF20C1001F08EFEA6214DF28D
:1043A0000D1001F089FE00214DF20E1001F084FE87
:1043B000E5214DF20F1001F07FFE01214DF21010AA
:1043C00001F07AFE13214DF2111001F075FE01216A
:1043D0004DF2121001F070FE54214DF2131001F055
:1043E0006BFE01214DF2141001F066FE82214DF2A8
:1043F000151001F061FE01214DF2161001F05CFE76
:10440000CA214DF2171001F057FE02214DF218108B
:1044100001F052FE00214DF2191001F04DFE022173
:104420004DF21A1001F048FE01214DF21B1001F06F
:1044300043FE02214DF21C1001F03EFE34214DF2EC
:104440001D1001F039FE02214DF21E1001F034FE64
:1044500067214DF21F1001F02FFE02214DF22010B6
:1044600001F02AFE84214DF2211001F025FE0221E7
:104470004DF2221001F020FEA4214DF2231001F094
:104480001BFE02214DF2241001F016FEB7214DF261
:10449000251001F011FE02214DF2261001F00CFE54
:1044A000CF214DF2271001F007FE02214DF2281016
:1044B00001F002FEDE214DF2291001F0FDFD022186
:1044C0004DF22A1001F0F8FDF2214DF22B1001F00F
:1044D000F3FD02214DF22C1001F0EEFDFE214DF214
:1044E0002D1001F0E9FD03214DF22E1001F0E4FD45
:1044F00010214DF22F1001F0DFFD03214DF230109D
:1045000001F0DAFD33214DF2311001F0D5FD032128
:104510004DF2321001F0D0FD6D214DF2331001F05B
:10452000CBFD00214FF4524001F0C6FD33214DF286
:10453000012001F0C1FD00214DF2022001F0BCFD7F
:1045400034214DF2032001F0B7FD00214DF204208B
:1045500001F0B2FD3A214DF2052001F0ADFD002140
:104560004DF2062001F0A8FD4A214DF2072001F08E
:10457000A3FD00214DF2082001F09EFD5C214DF2CB
:10458000092001F099FD00214DF20A2001F094FD6F
:1045900081214DF20B2001F08FFD00214DF20C2006
:1045A00001F08AFDA6214DF20D2001F085FD0021CC
:1045B0004DF20E2001F080FDE5214DF20F2001F0BB
:1045C0007BFD01214DF2102001F076FD13214DF20B
:1045D000112001F071FD01214DF2122001F06CFD5E
:1045E00054214DF2132001F067FD01214DF21420FA
:1045F00001F062FD82214DF2152001F05DFD0121E7
:104600004DF2162001F058FDCA214DF2172001F09D
:1046100053FD02214DF2182001F04EFD00214DF214
:10462000192001F049FD02214DF21A2001F044FD4C
:1046300001214DF21B2001F03FFD02214DF21C2013
:1046400001F03AFD34214DF21D2001F035FD02212B
:104650004DF21E2001F030FD67214DF21F2001F0C8
:104660002BFD02214DF2202001F026FD84214DF288
:10467000212001F021FD02214DF2222001F01CFD3C
:10468000A4214DF2232001F017FD02214DF2242038
:1046900001F012FDB7214DF2252001F00DFD0221A0
:1046A0004DF2262001F008FDCF214DF2272001F028
:1046B00003FD02214DF2282001F0FEFCDE214DF227
:1046C000292001F0F9FC02214DF22A2001F0F4FC2E
:1046D000F2214DF22B2001F0EFFC02214DF22C20B3
:1046E00001F0EAFCFE214DF22D2001F0E5FC032152
:1046F0004DF22E2001F0E0FC10214DF22F2001F0B0
:10470000DBFC03214DF2302001F0D6FC33214DF2C9
:10471000312001F0D1FC03214DF2322001F0CCFC1C
:104720006D214DF2332001F0C7FC00214FF45340BE
:1047300001F0C2FC33214DF2013001F0BDFC00213B
:104740004DF2023001F0B8FC34214DF2033001F09B
:10475000B3FC00214DF2043001F0AEFC3A214DF2E1
:10476000053001F0A9FC00214DF2063001F0A4FC57
:104770004A214DF2073001F09FFC00214DF2083034
:1047800001F09AFC5C214DF2093001F095FC00210A
:104790004DF20A3001F090FC81214DF20B3001F016
:1047A0008BFC00214DF20C3001F086FCA6214DF26D
:1047B0000D3001F081FC00214DF20E3001F07CFC47
:1047C000E5214DF20F3001F077FC01214DF2103060
:1047D00001F072FC13214DF2113001F06DFC01214A
:1047E0004DF2123001F068FC54214DF2133001F00B
:1047F00063FC01214DF2143001F05EFC82214DF288
:10480000153001F059FC01214DF2163001F054FC35
:10481000CA214DF2173001F04FFC02214DF2183041
:1048200001F04AFC00214DF2193001F045FC022153
:104830004DF21A3001F040FC01214DF21B3001F025
:104840003BFC02214DF21C3001F036FC34214DF2CC
:104850001D3001F031FC02214DF21E3001F02CFC24
:1048600067214DF21F3001F027FC02214DF220306C
:1048700001F022FC84214DF2213001F01DFC0221C7
:104880004DF2223001F018FCA4214DF2233001F04A
:1048900013FC02214DF2243001F00EFCB7214DF241
:1048A000253001F009FC02214DF2263001F004FC14
:1048B000CF214DF2273001F0FFFB02214DF22830CD
:1048C00001F0FAFBDE214DF2293001F0F5FB022167
:1048D0004DF22A3001F0F0FBF2214DF22B3001F0C5
:1048E000EBFB02214DF22C3001F0E6FBFE214DF2F4
:1048F0002D3001F0E1FB03214DF22E3001F0DCFB05
:1049000010214DF22F3001F0D7FB03214DF2303052
:1049100001F0D2FB33214DF2313001F0CDFB032108
:104920004DF2323001F0C8FB6D214DF2333001F011
:10493000C3FB00214FF4544001F0BEFB33214DF284
:10494000014001F0B9FB00214DF2024001F0B4FB3F
:1049500034214DF2034001F0AFFB00214DF2044041
:1049600001F0AAFB3A214DF2054001F0A5FB002120
:104970004DF2064001F0A0FB4A214DF2074001F044
:104980009BFB00214DF2084001F096FB5C214DF2AB
:10499000094001F091FB00214DF20A4001F08CFB2F
:1049A00081214DF20B4001F087FB00214DF20C40BC
:1049B00001F082FBA6214DF20D4001F07DFB0021AC
:1049C0004DF20E4001F078FBE5214DF20F4001F071
:1049D00073FB01214DF2104001F06EFB13214DF2EB
:1049E000114001F069FB01214DF2124001F064FB1E
:1049F00054214DF2134001F05FFB01214DF21440B0
:104A000001F05AFB82214DF2154001F055FB0121C6
:104A10004DF2164001F050FBCA214DF2174001F053
:104A20004BFB02214DF2184001F046FB00214DF2F4
:104A3000194001F041FB02214DF21A4001F03CFB0C
:104A400001214DF21B4001F037FB02214DF21C40C9
:104A500001F032FB34214DF21D4001F02DFB02210B
:104A60004DF21E4001F028FB67214DF21F4001F07E
:104A700023FB02214DF2204001F01EFB84214DF268
:104A8000214001F019FB02214DF2224001F014FBFC
:104A9000A4214DF2234001F00FFB02214DF22440EE
:104AA00001F00AFBB7214DF2254001F005FB022180
:104AB0004DF2264001F000FBCF214DF2274001F0DE
:104AC000FBFA02214DF2284001F0F6FADE214DF208
:104AD000294001F0F1FA02214DF22A4001F0ECFAEE
:104AE000F2214DF22B4001F0E7FA02214DF22C4069
:104AF00001F0E2FAFE214DF22D4001F0DDFA032132
:104B00004DF22E4001F0D8FA10214DF22F4001F065
:104B1000D3FA03214DF2304001F0CEFA33214DF2A9
:104B2000314001F0C9FA03214DF2324001F0C4FADC
:104B30006D214DF2334001F0BFFA00214FF4554092
:104B400001F0BAFA33214DF2015001F0B5FA00211B
:104B50004DF2025001F0B0FA34214DF2035001F051
:104B6000ABFA00214DF2045001F0A6FA3A214DF2C1
:104B7000055001F0A1FA00214DF2065001F09CFA17
:104B80004A214DF2075001F097FA00214DF20850EA
:104B900001F092FA5C214DF2095001F08DFA0021EA
:104BA0004DF20A5001F088FA81214DF20B5001F0CC
:104BB00083FA00214DF20C5001F07EFAA6214DF24D
:104BC0000D5001F079FA00214DF20E5001F074FA07
:104BD000E5214DF20F5001F06FFA01214DF2105016
:104BE00001F06AFA13214DF2115001F065FA01212A
:104BF0004DF2125001F060FA54214DF2135001F0C1
:104C00005BFA01214DF2145001F056FA82214DF267
:104C1000155001F051FA01214DF2165001F04CFAF5
:104C2000CA214DF2175001F047FA02214DF21850F7
:104C300001F042FA00214DF2195001F03DFA022133
:104C40004DF21A5001F038FA01214DF21B5001F0DB
:104C500033FA02214DF21C5001F02EFA34214DF2AC
:104C60001D5001F029FA02214DF21E5001F024FAE4
:104C700067214DF21F5001F01FFA02214DF2205022
:104C800001F01AFA84214DF2215001F015FA0221A7
:104C90004DF2225001F010FAA4214DF2235001F000
:104CA0000BFA02214DF2245001F006FAB7214DF221
:104CB000255001F001FA02214DF2265001F0FCF9D5
:104CC000CF214DF2275001F0F7F902214DF2285083
:104CD00001F0F2F9DE214DF2295001F0EDF9022147
:104CE0004DF22A5001F0E8F9F2214DF22B5001F07B
:104CF000E3F902214DF22C5001F0DEF9FE214DF2D4
:104D00002D5001F0D9F903214DF22E5001F0D4F9C4
:104D100010214DF22F5001F0CFF903214DF2305008
:104D200001F0CAF933214DF2315001F0C5F90321E8
:104D30004DF2325001F0C0F96D214DF2335001F0C7
:104D4000BBF900214FF4564001F0B6F933214DF282
:104D5000016001F0B1F900214DF2026001F0ACF9FF
:104D600034214DF2036001F0A7F900214DF20460F7
:104D700001F0A2F93A214DF2056001F09DF9002100
:104D80004DF2066001F098F94A214DF2076001F0FA
:104D900093F900214DF2086001F08EF95C214DF28B
:104DA000096001F089F900214DF20A6001F084F9EF
:104DB00081214DF20B6001F07FF900214DF20C6072
:104DC00001F07AF9A6214DF20D6001F075F900218C
:104DD0004DF20E6001F070F9E5214DF20F6001F027
:104DE0006BF901214DF2106001F066F913214DF2CB
:104DF000116001F061F901214DF2126001F05CF9DE
:104E000054214DF2136001F057F901214DF2146065
:104E100001F052F982214DF2156001F04DF90121A6
:104E20004DF2166001F048F9CA214DF2176001F009
:104E300043F902214DF2186001F03EF900214DF2D4
:104E4000196001F039F902214DF21A6001F034F9CC
:104E500001214DF21B6001F02FF902214DF21C607F
:104E600001F02AF934214DF21D6001F025F90221EB
:104E70004DF21E6001F020F967214DF21F6001F034
:104E80001BF902214DF2206001F016F984214DF248
:104E9000216001F011F902214DF2226001F00CF9BC
:104EA000A4214DF2236001F007F902214DF22460A4
:104EB00001F002F9B7214DF2256001F0FDF8022161
:104EC0004DF2266001F0F8F8CF214DF2276001F095
:104ED000F3F802214DF2286001F0EEF8DE214DF2E8
:104EE000296001F0E9F802214DF22A6001F0E4F8AE
:104EF000F2214DF22B6001F0DFF802214DF22C601F
:104F000001F0DAF8FE214DF22D6001F0D5F8032111
:104F10004DF22E6001F0D0F810214DF22F6001F01B
:104F2000CBF803214DF2306001F0C6F833214DF289
:104F3000316001F0C1F803214DF2326001F0BCF89C
:104F40006D214DF2336001F0B7F855214FF47040F8
:104F500001F0B2F8AA214FF2010001F0ADF85221A0
:104F60004FF2020001F0A8F808214FF2030001F00F
:104F7000A3F800214FF2040001F09EF8CC214FF479
:104F8000314001F099F800214BF2011001F094F842
:104F900005214FF4364001F08FF870214FF437406F
:104FA00001F08AF870214BF2017001F085F80121BF
:104FB0004FF4384001F080F803214BF6010001F076
:104FC0007BF803214BF6020001F076F803214BF643
:104FD000030001F071F802214FF43C4001F06CF83D
:104FE00000214BF6014001F067F800214BF602402A
:104FF00001F062F8D0214FF4494001F05DF8022140
:105000004CF6011001F058F850214CF6021001F056
:1050100053F850214CF6031001F04EF850214CF695
:10502000041001F049F800214FF4545001F044F805
:1050300055214FF4685001F03FF84FF4885001F0CB
:1050400025F87820FDF73CFC4FF4245001F01EF8C1
:1050500010BD10B5E22001F019F81D2001F00AF88A
:10506000022001F007F8042001F004F86420FDF7A5
:1050700027FCE02001F00AF8012000F0FBFF0A20E5
:10508000FDF712FCE02001F001F8032000F0F2FF30
:105090000C20FDF709FC012000F0F8FF0A20FDF7C5
:1050A00003FCE62000F0F2FF2F2000F0E3FFFF20DA
:1050B00000F0E0FFFF2000F0DDFFB02000F0E6FF91
:1050C000202000F0D7FF002000F0D4FF032000F0E4
:1050D000D1FF40F21F3000F0CDFF012000F0CAFFE9
:1050E00040F2DF1000F0C6FF002000F0C3FFB42044
:1050F00000F0CCFF042000F0BDFF40F21F4000F0A4
:10510000B9FF002000F0B6FF2E2000F0B3FF002012
:1051100000F0B0FF002000F0ADFF002000F0AAFF7B
:10512000002000F0A7FFB62000F0B0FF022000F042
:10513000A1FF4FF4037000F09DFF002000F09AFFE4
:10514000172000F097FF152000F094FF002000F0DA
:1051500091FF002000F08EFFF02000F097FF032069
:1051600000F088FF292000F091FFD02000F08EFF92
:10517000002000F07FFFBE2000F088FF052000F037
:1051800079FFFE2000F076FF012000F073FF002081
:1051900000F070FF002000F06DFF002000F06AFFBB
:1051A000B82000F073FF032000F064FF012000F03E
:1051B00061FFBA2000F06AFF012000F05BFF10BD24
:1051C00010B5112000F062FF7820FDF76DFB36204E
:1051D00000F05CFF002000F04DFF3A2000F056FF89
:1051E000052000F047FFB22000F050FF0C2000F037
:1051F00041FF0C2000F03EFF002000F03BFF332079
:1052000000F038FF332000F035FFB72000F03EFFFC
:10521000352000F02FFFBB2000F038FF322000F0D7
:1052200029FFC02000F032FF0C2000F023FFC22035
:1052300000F02CFF012000F01DFFC32000F026FF2E
:10524000102000F017FFC42000F020FF202000F005
:1052500011FFC62000F01AFF0F2000F00BFFD02036
:1052600000F014FFA42000F005FFA12000F002FFD1
:10527000E02000F00BFFD02000F0FCFE002000F04A
:10528000F9FE022000F0F6FE072000F0F3FE0A20EF
:1052900000F0F0FE282000F0EDFE322000F0EAFEE3
:1052A000442000F0E7FE422000F0E4FE062000F07B
:1052B000E1FE0E2000F0DEFE122000F0DBFE1420E6
:1052C00000F0D8FE172000F0D5FEE12000F0DEFE51
:1052D000D02000F0CFFE002000F0CCFE022000F035
:1052E000C9FE072000F0C6FE0A2000F0C3FE2820F9
:1052F00000F0C0FE312000F0BDFE542000F0BAFEE8
:10530000472000F0B7FE0E2000F0B4FE1C2000F095
:10531000B1FE172000F0AEFE1B2000F0ABFE1E20F9
:1053200000F0A8FE2A2000F0B1FE002000F0A2FE4E
:10533000002000F09FFE002000F09CFEEF2000F017
:1053400099FE2B2000F0A2FE002000F093FE00202A
:1053500000F090FE012000F08DFE3F2000F08AFE5C
:10536000292000F093FE10BD10B5112000F08EFE34
:105370007820FDF799FA362000F088FE482000F0EA
:1053800079FE3A2000F082FE552000F073FEF020F6
:1053900000F07CFEC32000F06DFEF02000F076FEF1
:1053A000962000F067FEB42000F070FE012000F0AF
:1053B00061FEB62000F06AFE0A2000F05BFEA2202B
:1053C00000F058FEB72000F061FEC62000F052FE4B
:1053D000B92000F05BFE022000F04CFEE02000F05F
:1053E00049FEC02000F052FE802000F043FE16204F
:1053F00000F040FEC12000F049FE192000F03AFE06
:10540000C22000F043FEA72000F034FEC52000F0CB
:105410003DFE162000F02EFEE82000F037FE402072
:1054200000F028FE8A2000F025FE002000F022FE79
:10543000002000F01FFE292000F01CFE192000F0C3
:1054400019FEA52000F016FE332000F013FEE02028
:1054500000F01CFEF02000F00DFE072000F00AFE18
:105460000D2000F007FE042000F004FE052000F0EF
:1054700001FE142000F0FEFD362000F0FBFD54205C
:1054800000F0F8FD4C2000F0F5FD382000F0F2FDB2
:10549000132000F0EFFD142000F0ECFD2E2000F0B2
:1054A000E9FD342000F0E6FDE12000F0EFFDF02002
:1054B00000F0E0FD102000F0DDFD142000F0DAFD2A
:1054C0000E2000F0D7FD0C2000F0D4FD082000F0E5
:1054D000D1FD352000F0CEFD442000F0CBFD4C2066
:1054E00000F0C8FD262000F0C5FD102000F0C2FD30
:1054F000122000F0BFFD2C2000F0BCFD322000F097
:10550000B9FDF02000F0C2FD3C2000F0B3FDF0201A
:1055100000F0BCFD692000F0ADFD7820FDF7C4F976
:10552000212000F0B3FD292000F0B0FD10BD0000E7
:1055300000B593B000BF00BFFB48806940F48070A5
:10554000F94988610846806900F48070009000BFC6
:1055500000BF00BF00BF00BF0846806940F02000C8
:1055600088610846806900F02000009000BF00BFFD
:1055700000BF00BF00BF0846806940F0200088617E
:105580000846806900F02000009000BF00BF00BF07
:1055900000BF00BF0846806940F4807088610846FB
:1055A000806900F48070009000BF00BF00BF00BFA2
:1055B00000BF0846806940F008008861084680699D
:1055C00000F00800009000BF00BF00BF88140F90DB
:1055D0000220109001201190032012900FA9D348AF
:1055E000FBF7BAFA20200F900FA9D148FBF7B4FAC5
:1055F00010200F900FA9CE48FBF7AEFA01200F90B4
:105600000FA9CA48FBF7A8FA01200F9010900FA924
:10561000C848FBF7A1FA4FF02040C7490860C748C7
:105620004860062088600021C348C16010214161A4
:1056300000218161C16141624FF48051816200218A
:10564000C1624FF480410163002141638163002006
:10565000089009900F200A9000200E90019002906F
:10566000012003900020079001AA08A9B248FCF786
:105670007CFA3220FDF718F9D32000F007FD00F086
:1056800087F9AF49888000F083F9AD49888000F040
:105690007FF9AB498880084680884FF6FF7101EAA0
:1056A0000020A749888000F073F9A549898808433C
:1056B000A34988800846808849F2413188427CD0DD
:1056C000042000F0E3FC00F063F99D49888000F0BD
:1056D0005FF99B49888000F05BF99949888008460A
:1056E00080884FF6FF7101EA00209549888000F01C
:1056F0004FF99349898808439149888008468088F2
:1057000048F25251884203D147F289708C4988800F
:105710008B48808847F289718842D0D0D42000F02D
:10572000B5FC00F035F98649888000F031F98449EC
:10573000888000F02DF982498880084680884FF6DD
:10574000FF7101EA00207E49888000F021F97C4940
:10575000898808437A4988800846808845F2103154
:105760008842ACD0D32000F091FC00F011F97449CC
:10577000888000F00DF97249888000F009F97049BD
:105780008880084680884FF6FF7101EA00206C4946
:10579000888000F0FDF86A49898808436849888054
:1057A0000846808847F29671884288D055214FF488
:1057B000704000F081FCAA2100E07EE04FF2010081
:1057C00000F07AFC52214FF2020000F075FC082133
:1057D0004FF2030000F070FC01214FF2040000F0D2
:1057E0006BFC4FF4454000F051FC00F0D1F85449F7
:1057F0008880084680884FF6FF7101EA00205049F2
:1058000088804CF2015000F041FC00F0C1F84C4996
:10581000898808434A4988800520FDF745F84848AB
:10582000808845F21051884247D0D32000F02EFCEA
:1058300000F0AEF84249888000F0AAF8404988801C
:1058400000F0A6F83E498880084680884FF6FF7130
:1058500001EA00203A49888000F09AF8384989889E
:105860000843374988800846808849F606018842FF
:1058700023D0A12000F00AFC00F08AF8304988808B
:1058800000F086F82E498880084680884FF6FF7120
:1058900001EA00202A49888000F07AF8284989889E
:1058A0000843274988800846808845F2617188420C
:1058B00003D141F66310224988802148808847F24D
:1058C0008971884202D1FFF77BFC46E01C48808842
:1058D00049F24131884202D1FDF70EFA3DE0184805
:1058E000808845F21031884202D1FDF7BBFC34E0DC
:1058F0001348808847F29671884202D1FFF734FD41
:105900002BE00F48808845F21051884202D1FEF703
:1059100022FC22E00A48808849F60601884211D11B
:10592000FDF700FB19E000000010024000200140DC
:1059300000140140000C0140E0010020040100A01F
:10594000280200200D48808841F66311884204D166
:10595000FFF77FFB642000F063FB0020FDF706F9F2
:1059600000BF012211460648FBF7A8FA00BF4FF618
:10597000FF70FDF7E1F813B000BD00002802002021
:10598000000C014000BF0100A0F10100FBD17047F5
:1059900008B50220FFF7F6FF024800880090BDF826
:1059A000000008BD0008006CF0B505460024002783
:1059B0008B488079012805D18948808841F6631198
:1059C000884208D186488079F0B98548808841F6B8
:1059D0006311884218D1082D15D2DFE805F00406BE
:1059E000080A0C0E101206250DE007250BE0042511
:1059F00009E0052507E0012505E0002503E0032572
:105A000001E0022500BF00BF082D1CD2DFE805F031
:105A10000406090C0F12151800BF14E044F08004AE
:105A200011E044F040040EE044F0C0040BE044F008
:105A3000200408E044F0600405E044F0A00402E023
:105A400044F0E00400BF00BF36276548808845F277
:105A50001051884200D13F026148808849F24131AB
:105A600088420BD05E48808847F28971884205D011
:105A70005B48808847F29671884201D144F008045F
:105A80002146384600F018FB5548808841F66311DE
:105A900088421DD004F0200068B151480088504968
:105AA0004988884214DA4E48068840884C49088064
:105AB000084646800CE04A4800884949498888429F
:105AC00006DD4748068840884549088008464680E4
:105AD0004348808845F21051884252D14049488954
